{
  "contractName": "TodoTaskContract",
  "abi": [
    {
      "anonymous": false,
      "inputs": [
        {
          "indexed": false,
          "internalType": "address",
          "name": "recipient",
          "type": "address"
        },
        {
          "indexed": false,
          "internalType": "uint256",
          "name": "taskID",
          "type": "uint256"
        }
      ],
      "name": "AddTask",
      "type": "event"
    },
    {
      "anonymous": false,
      "inputs": [
        {
          "indexed": false,
          "internalType": "uint256",
          "name": "taskId",
          "type": "uint256"
        },
        {
          "indexed": false,
          "internalType": "bool",
          "name": "isCompleted",
          "type": "bool"
        },
        {
          "indexed": false,
          "internalType": "string",
          "name": "completedAt",
          "type": "string"
        }
      ],
      "name": "CompleteTask",
      "type": "event"
    },
    {
      "anonymous": false,
      "inputs": [
        {
          "indexed": false,
          "internalType": "uint256",
          "name": "taskId",
          "type": "uint256"
        },
        {
          "indexed": false,
          "internalType": "bool",
          "name": "isDeleted",
          "type": "bool"
        }
      ],
      "name": "RemoveTask",
      "type": "event"
    },
    {
      "inputs": [
        {
          "internalType": "string",
          "name": "title",
          "type": "string"
        },
        {
          "internalType": "string",
          "name": "createdAt",
          "type": "string"
        }
      ],
      "name": "addTask",
      "outputs": [],
      "stateMutability": "nonpayable",
      "type": "function"
    },
    {
      "inputs": [],
      "name": "getMyTasks",
      "outputs": [
        {
          "components": [
            {
              "internalType": "uint256",
              "name": "id",
              "type": "uint256"
            },
            {
              "internalType": "string",
              "name": "title",
              "type": "string"
            },
            {
              "internalType": "string",
              "name": "createdAt",
              "type": "string"
            },
            {
              "internalType": "string",
              "name": "compeledAt",
              "type": "string"
            },
            {
              "internalType": "bool",
              "name": "isChecked",
              "type": "bool"
            },
            {
              "internalType": "bool",
              "name": "isDeleted",
              "type": "bool"
            }
          ],
          "internalType": "struct TodoTaskContract.Task[]",
          "name": "",
          "type": "tuple[]"
        }
      ],
      "stateMutability": "view",
      "type": "function",
      "constant": true
    },
    {
      "inputs": [
        {
          "internalType": "uint256",
          "name": "taskId",
          "type": "uint256"
        },
        {
          "internalType": "bool",
          "name": "isDeleted",
          "type": "bool"
        }
      ],
      "name": "removeTask",
      "outputs": [],
      "stateMutability": "nonpayable",
      "type": "function"
    },
    {
      "inputs": [
        {
          "internalType": "uint256",
          "name": "taskId",
          "type": "uint256"
        },
        {
          "internalType": "bool",
          "name": "isChecked",
          "type": "bool"
        },
        {
          "internalType": "string",
          "name": "completedAt",
          "type": "string"
        }
      ],
      "name": "completeTask",
      "outputs": [],
      "stateMutability": "nonpayable",
      "type": "function"
    }
  ],
  "bytecode": "0x608060405234801561001057600080fd5b5061124b806100206000396000f3fe608060405234801561001057600080fd5b506004361061004c5760003560e01c80636e13f81814610051578063b37b10001461006f578063e7cd70941461008b578063ea25222e146100a7575b600080fd5b6100596100c3565b6040516100669190610a6e565b60405180910390f35b61008960048036038101906100849190610bd9565b6104f2565b005b6100a560048036038101906100a09190610ca9565b610686565b005b6100c160048036038101906100bc9190610d18565b610736565b005b60606000808054905067ffffffffffffffff8111156100e5576100e4610aae565b5b60405190808252806020026020018201604052801561011e57816020015b61010b610817565b8152602001906001900390816101035790505b5090506000805b600080549050811015610438573373ffffffffffffffffffffffffffffffffffffffff166001600083815260200190815260200160002060009054906101000a900473ffffffffffffffffffffffffffffffffffffffff1673ffffffffffffffffffffffffffffffffffffffff161480156101d05750600081815481106101af576101ae610d58565b5b906000526020600020906005020160040160019054906101000a900460ff16155b1561042557600081815481106101e9576101e8610d58565b5b90600052602060002090600502016040518060c00160405290816000820154815260200160018201805461021c90610db6565b80601f016020809104026020016040519081016040528092919081815260200182805461024890610db6565b80156102955780601f1061026a57610100808354040283529160200191610295565b820191906000526020600020905b81548152906001019060200180831161027857829003601f168201915b505050505081526020016002820180546102ae90610db6565b80601f01602080910402602001604051908101604052809291908181526020018280546102da90610db6565b80156103275780601f106102fc57610100808354040283529160200191610327565b820191906000526020600020905b81548152906001019060200180831161030a57829003601f168201915b5050505050815260200160038201805461034090610db6565b80601f016020809104026020016040519081016040528092919081815260200182805461036c90610db6565b80156103b95780601f1061038e576101008083540402835291602001916103b9565b820191906000526020600020905b81548152906001019060200180831161039c57829003601f168201915b505050505081526020016004820160009054906101000a900460ff161515151581526020016004820160019054906101000a900460ff16151515158152505083838151811061040b5761040a610d58565b5b6020026020010181905250818061042190610e16565b9250505b808061043090610e16565b915050610125565b5060008167ffffffffffffffff81111561045557610454610aae565b5b60405190808252806020026020018201604052801561048e57816020015b61047b610817565b8152602001906001900390816104735790505b50905060005b828110156104e8578381815181106104af576104ae610d58565b5b60200260200101518282815181106104ca576104c9610d58565b5b602002602001018190525080806104e090610e16565b915050610494565b5080935050505090565b60008080549050905060006040518060c00160405280838152602001858152602001848152602001604051806020016040528060008152508152602001600015158152602001600015158152509080600181540180825580915050600190039060005260206000209060050201600090919091909150600082015181600001556020820151816001019081610587919061100a565b50604082015181600201908161059d919061100a565b5060608201518160030190816105b3919061100a565b5060808201518160040160006101000a81548160ff02191690831515021790555060a08201518160040160016101000a81548160ff0219169083151502179055505050336001600083815260200190815260200160002060006101000a81548173ffffffffffffffffffffffffffffffffffffffff021916908373ffffffffffffffffffffffffffffffffffffffff1602179055507f1f54e1ba1832d428fbd7e7792beaf62b1fc5a382c207ffd614209c1413e94fda338260405161067992919061112c565b60405180910390a1505050565b816000848154811061069b5761069a610d58565b5b906000526020600020906005020160040160006101000a81548160ff02191690831515021790555080600084815481106106d8576106d7610d58565b5b906000526020600020906005020160030190816106f5919061100a565b507ff36ed0d77abd804f77c0a4dfc54ab7c0fb0243671b97521545705da6cf783a16838383604051610729939291906111ae565b60405180910390a1505050565b3373ffffffffffffffffffffffffffffffffffffffff166001600084815260200190815260200160002060009054906101000a900473ffffffffffffffffffffffffffffffffffffffff1673ffffffffffffffffffffffffffffffffffffffff16036108135780600083815481106107b1576107b0610d58565b5b906000526020600020906005020160040160016101000a81548160ff0219169083151502179055507f157cb0533cad35d3ac1fbf029c30153ad0666c38b245dd946ed0899e7bbf86ef828260405161080a9291906111ec565b60405180910390a15b5050565b6040518060c00160405280600081526020016060815260200160608152602001606081526020016000151581526020016000151581525090565b600081519050919050565b600082825260208201905092915050565b6000819050602082019050919050565b6000819050919050565b6108908161087d565b82525050565b600081519050919050565b600082825260208201905092915050565b60005b838110156108d05780820151818401526020810190506108b5565b60008484015250505050565b6000601f19601f8301169050919050565b60006108f882610896565b61090281856108a1565b93506109128185602086016108b2565b61091b816108dc565b840191505092915050565b60008115159050919050565b61093b81610926565b82525050565b600060c0830160008301516109596000860182610887565b506020830151848203602086015261097182826108ed565b9150506040830151848203604086015261098b82826108ed565b915050606083015184820360608601526109a582826108ed565b91505060808301516109ba6080860182610932565b5060a08301516109cd60a0860182610932565b508091505092915050565b60006109e48383610941565b905092915050565b6000602082019050919050565b6000610a0482610851565b610a0e818561085c565b935083602082028501610a208561086d565b8060005b85811015610a5c5784840389528151610a3d85826109d8565b9450610a48836109ec565b925060208a01995050600181019050610a24565b50829750879550505050505092915050565b60006020820190508181036000830152610a8881846109f9565b905092915050565b6000604051905090565b600080fd5b600080fd5b600080fd5b600080fd5b7f4e487b7100000000000000000000000000000000000000000000000000000000600052604160045260246000fd5b610ae6826108dc565b810181811067ffffffffffffffff82111715610b0557610b04610aae565b5b80604052505050565b6000610b18610a90565b9050610b248282610add565b919050565b600067ffffffffffffffff821115610b4457610b43610aae565b5b610b4d826108dc565b9050602081019050919050565b82818337600083830152505050565b6000610b7c610b7784610b29565b610b0e565b905082815260208101848484011115610b9857610b97610aa9565b5b610ba3848285610b5a565b509392505050565b600082601f830112610bc057610bbf610aa4565b5b8135610bd0848260208601610b69565b91505092915050565b60008060408385031215610bf057610bef610a9a565b5b600083013567ffffffffffffffff811115610c0e57610c0d610a9f565b5b610c1a85828601610bab565b925050602083013567ffffffffffffffff811115610c3b57610c3a610a9f565b5b610c4785828601610bab565b9150509250929050565b610c5a8161087d565b8114610c6557600080fd5b50565b600081359050610c7781610c51565b92915050565b610c8681610926565b8114610c9157600080fd5b50565b600081359050610ca381610c7d565b92915050565b600080600060608486031215610cc257610cc1610a9a565b5b6000610cd086828701610c68565b9350506020610ce186828701610c94565b925050604084013567ffffffffffffffff811115610d0257610d01610a9f565b5b610d0e86828701610bab565b9150509250925092565b60008060408385031215610d2f57610d2e610a9a565b5b6000610d3d85828601610c68565b9250506020610d4e85828601610c94565b9150509250929050565b7f4e487b7100000000000000000000000000000000000000000000000000000000600052603260045260246000fd5b7f4e487b7100000000000000000000000000000000000000000000000000000000600052602260045260246000fd5b60006002820490506001821680610dce57607f821691505b602082108103610de157610de0610d87565b5b50919050565b7f4e487b7100000000000000000000000000000000000000000000000000000000600052601160045260246000fd5b6000610e218261087d565b91507fffffffffffffffffffffffffffffffffffffffffffffffffffffffffffffffff8203610e5357610e52610de7565b5b600182019050919050565b60008190508160005260206000209050919050565b60006020601f8301049050919050565b600082821b905092915050565b600060088302610ec07fffffffffffffffffffffffffffffffffffffffffffffffffffffffffffffffff82610e83565b610eca8683610e83565b95508019841693508086168417925050509392505050565b6000819050919050565b6000610f07610f02610efd8461087d565b610ee2565b61087d565b9050919050565b6000819050919050565b610f2183610eec565b610f35610f2d82610f0e565b848454610e90565b825550505050565b600090565b610f4a610f3d565b610f55818484610f18565b505050565b5b81811015610f7957610f6e600082610f42565b600181019050610f5b565b5050565b601f821115610fbe57610f8f81610e5e565b610f9884610e73565b81016020851015610fa7578190505b610fbb610fb385610e73565b830182610f5a565b50505b505050565b600082821c905092915050565b6000610fe160001984600802610fc3565b1980831691505092915050565b6000610ffa8383610fd0565b9150826002028217905092915050565b61101382610896565b67ffffffffffffffff81111561102c5761102b610aae565b5b6110368254610db6565b611041828285610f7d565b600060209050601f8311600181146110745760008415611062578287015190505b61106c8582610fee565b8655506110d4565b601f19841661108286610e5e565b60005b828110156110aa57848901518255600182019150602085019450602081019050611085565b868310156110c757848901516110c3601f891682610fd0565b8355505b6001600288020188555050505b505050505050565b600073ffffffffffffffffffffffffffffffffffffffff82169050919050565b6000611107826110dc565b9050919050565b611117816110fc565b82525050565b6111268161087d565b82525050565b6000604082019050611141600083018561110e565b61114e602083018461111d565b9392505050565b61115e81610926565b82525050565b600082825260208201905092915050565b600061118082610896565b61118a8185611164565b935061119a8185602086016108b2565b6111a3816108dc565b840191505092915050565b60006060820190506111c3600083018661111d565b6111d06020830185611155565b81810360408301526111e28184611175565b9050949350505050565b6000604082019050611201600083018561111d565b61120e6020830184611155565b939250505056fea264697066735822122078472241f5ab3de3749a468651daa8cf6858ad82a066fd67bafbcac46b1a533664736f6c63430008110033",
  "immutableReferences": {},
  "source": "// SPDX-License-Identifier: MIT\npragma solidity >=0.4.22 <0.9.0;\n\ncontract TodoTaskContract {\n  event AddTask(address recipient, uint taskID);\n  event RemoveTask(uint taskId, bool isDeleted);\n  event CompleteTask(uint taskId, bool isCompleted, string completedAt);\n//{id: 1, title: \"Task 1\", createdAt: \"10/12/22\", completedAt: \"10/12/22\", isChecked: false, isDeleted: false}\n  struct Task {\n    uint id;\n    string title;\n    string createdAt;\n    string compeledAt;\n    bool isChecked;\n    bool isDeleted;\n  }\n\n  Task[] private tasks;\n  mapping(uint256 => address) taskToOwner;\n\n   function addTask(string memory title, string memory createdAt) public {\n    uint id = tasks.length;\n    tasks.push(Task(id, title, createdAt, \"\", false, false));\n    taskToOwner[id] = msg.sender;\n    emit AddTask(msg.sender, id);\n   }\n\n   function getMyTasks() public view returns (Task[] memory) {\n    Task[] memory myTasks = new Task[](tasks.length);\n    uint counter = 0;\n    for (uint i = 0; i < tasks.length; i++) {\n      if (taskToOwner[i] == msg.sender && !tasks[i].isDeleted) {\n        myTasks[counter] = tasks[i];\n        counter++;\n      }\n    }\n     Task[] memory result = new Task[](counter);\n    for (uint i = 0; i < counter; i++) {\n      result[i] = myTasks[i];\n    }\n    return result;\n   }\n\n   function removeTask(uint taskId, bool isDeleted) public {\n    if(taskToOwner[taskId] == msg.sender) {\n      tasks[taskId].isDeleted = isDeleted;\n      emit RemoveTask(taskId, isDeleted);\n    }\n   }\n\n   function completeTask(uint taskId,bool isChecked, string memory completedAt) public {\n    tasks[taskId].isChecked = isChecked;\n    tasks[taskId].compeledAt = completedAt;\n    emit CompleteTask(taskId, isChecked, completedAt);\n   }\n\n}\n",
  "sourcePath": "D:\\NextJs\\todo-in-solidity-with-nextjs-tailwindcss\\backend\\contracts\\TodoTaskContract.sol",
  "compiler": {
    "name": "solc",
    "version": "0.8.17+commit.8df45f5f.Emscripten.clang"
  },
  "schemaVersion": "3.4.10",
  "updatedAt": "2022-09-26T21:30:28.188Z",
  "networkType": "ethereum",
  "devdoc": {
    "kind": "dev",
    "methods": {},
    "version": 1
  },
  "userdoc": {
    "kind": "user",
    "methods": {},
    "version": 1
  }
}