{
  "contractName": "TodoTaskContract",
  "abi": [
    {
      "anonymous": false,
      "inputs": [
        {
          "indexed": false,
          "internalType": "address",
          "name": "recipient",
          "type": "address"
        },
        {
          "indexed": false,
          "internalType": "uint256",
          "name": "taskID",
          "type": "uint256"
        }
      ],
      "name": "AddTask",
      "type": "event"
    },
    {
      "anonymous": false,
      "inputs": [
        {
          "indexed": false,
          "internalType": "uint256",
          "name": "taskId",
          "type": "uint256"
        },
        {
          "indexed": false,
          "internalType": "bool",
          "name": "isCompleted",
          "type": "bool"
        },
        {
          "indexed": false,
          "internalType": "string",
          "name": "completedAt",
          "type": "string"
        }
      ],
      "name": "CompleteTask",
      "type": "event"
    },
    {
      "anonymous": false,
      "inputs": [
        {
          "indexed": false,
          "internalType": "uint256",
          "name": "taskId",
          "type": "uint256"
        },
        {
          "indexed": false,
          "internalType": "bool",
          "name": "isDeleted",
          "type": "bool"
        }
      ],
      "name": "RemoveTask",
      "type": "event"
    },
    {
      "inputs": [
        {
          "internalType": "string",
          "name": "title",
          "type": "string"
        },
        {
          "internalType": "string",
          "name": "createdAt",
          "type": "string"
        }
      ],
      "name": "addTask",
      "outputs": [],
      "stateMutability": "nonpayable",
      "type": "function"
    },
    {
      "inputs": [],
      "name": "getMyTasks",
      "outputs": [
        {
          "components": [
            {
              "internalType": "uint256",
              "name": "id",
              "type": "uint256"
            },
            {
              "internalType": "string",
              "name": "title",
              "type": "string"
            },
            {
              "internalType": "string",
              "name": "createdAt",
              "type": "string"
            },
            {
              "internalType": "string",
              "name": "compeledAt",
              "type": "string"
            },
            {
              "internalType": "bool",
              "name": "isChecked",
              "type": "bool"
            },
            {
              "internalType": "bool",
              "name": "isDeleted",
              "type": "bool"
            }
          ],
          "internalType": "struct TodoTaskContract.Task[]",
          "name": "",
          "type": "tuple[]"
        }
      ],
      "stateMutability": "view",
      "type": "function",
      "constant": true
    },
    {
      "inputs": [
        {
          "internalType": "uint256",
          "name": "taskId",
          "type": "uint256"
        },
        {
          "internalType": "bool",
          "name": "isDeleted",
          "type": "bool"
        }
      ],
      "name": "removeTask",
      "outputs": [],
      "stateMutability": "nonpayable",
      "type": "function"
    },
    {
      "inputs": [
        {
          "internalType": "uint256",
          "name": "taskId",
          "type": "uint256"
        },
        {
          "internalType": "string",
          "name": "completedAt",
          "type": "string"
        }
      ],
      "name": "completeTask",
      "outputs": [],
      "stateMutability": "nonpayable",
      "type": "function"
    }
  ],
  "bytecode": "0x608060405234801561001057600080fd5b50611239806100206000396000f3fe608060405234801561001057600080fd5b506004361061004c5760003560e01c80636e13f8181461005157806374aaa7601461006f578063b37b10001461008b578063ea25222e146100a7575b600080fd5b6100596100c3565b6040516100669190610a6f565b60405180910390f35b61008960048036038101906100849190610c06565b6104f2565b005b6100a560048036038101906100a09190610c62565b6105a3565b005b6100c160048036038101906100bc9190610d06565b610737565b005b60606000808054905067ffffffffffffffff8111156100e5576100e4610adb565b5b60405190808252806020026020018201604052801561011e57816020015b61010b610818565b8152602001906001900390816101035790505b5090506000805b600080549050811015610438573373ffffffffffffffffffffffffffffffffffffffff166001600083815260200190815260200160002060009054906101000a900473ffffffffffffffffffffffffffffffffffffffff1673ffffffffffffffffffffffffffffffffffffffff161480156101d05750600081815481106101af576101ae610d46565b5b906000526020600020906005020160040160019054906101000a900460ff16155b1561042557600081815481106101e9576101e8610d46565b5b90600052602060002090600502016040518060c00160405290816000820154815260200160018201805461021c90610da4565b80601f016020809104026020016040519081016040528092919081815260200182805461024890610da4565b80156102955780601f1061026a57610100808354040283529160200191610295565b820191906000526020600020905b81548152906001019060200180831161027857829003601f168201915b505050505081526020016002820180546102ae90610da4565b80601f01602080910402602001604051908101604052809291908181526020018280546102da90610da4565b80156103275780601f106102fc57610100808354040283529160200191610327565b820191906000526020600020905b81548152906001019060200180831161030a57829003601f168201915b5050505050815260200160038201805461034090610da4565b80601f016020809104026020016040519081016040528092919081815260200182805461036c90610da4565b80156103b95780601f1061038e576101008083540402835291602001916103b9565b820191906000526020600020905b81548152906001019060200180831161039c57829003601f168201915b505050505081526020016004820160009054906101000a900460ff161515151581526020016004820160019054906101000a900460ff16151515158152505083838151811061040b5761040a610d46565b5b6020026020010181905250818061042190610e04565b9250505b808061043090610e04565b915050610125565b5060008167ffffffffffffffff81111561045557610454610adb565b5b60405190808252806020026020018201604052801561048e57816020015b61047b610818565b8152602001906001900390816104735790505b50905060005b828110156104e8578381815181106104af576104ae610d46565b5b60200260200101518282815181106104ca576104c9610d46565b5b602002602001018190525080806104e090610e04565b915050610494565b5080935050505090565b60016000838154811061050857610507610d46565b5b906000526020600020906005020160040160006101000a81548160ff021916908315150217905550806000838154811061054557610544610d46565b5b906000526020600020906005020160030190816105629190610ff8565b507ff36ed0d77abd804f77c0a4dfc54ab7c0fb0243671b97521545705da6cf783a168260018360405161059793929190611132565b60405180910390a15050565b60008080549050905060006040518060c001604052808381526020018581526020018481526020016040518060200160405280600081525081526020016000151581526020016000151581525090806001815401808255809150506001900390600052602060002090600502016000909190919091506000820151816000015560208201518160010190816106389190610ff8565b50604082015181600201908161064e9190610ff8565b5060608201518160030190816106649190610ff8565b5060808201518160040160006101000a81548160ff02191690831515021790555060a08201518160040160016101000a81548160ff0219169083151502179055505050336001600083815260200190815260200160002060006101000a81548173ffffffffffffffffffffffffffffffffffffffff021916908373ffffffffffffffffffffffffffffffffffffffff1602179055507f1f54e1ba1832d428fbd7e7792beaf62b1fc5a382c207ffd614209c1413e94fda338260405161072a9291906111b1565b60405180910390a1505050565b3373ffffffffffffffffffffffffffffffffffffffff166001600084815260200190815260200160002060009054906101000a900473ffffffffffffffffffffffffffffffffffffffff1673ffffffffffffffffffffffffffffffffffffffff16036108145780600083815481106107b2576107b1610d46565b5b906000526020600020906005020160040160016101000a81548160ff0219169083151502179055507f157cb0533cad35d3ac1fbf029c30153ad0666c38b245dd946ed0899e7bbf86ef828260405161080b9291906111da565b60405180910390a15b5050565b6040518060c00160405280600081526020016060815260200160608152602001606081526020016000151581526020016000151581525090565b600081519050919050565b600082825260208201905092915050565b6000819050602082019050919050565b6000819050919050565b6108918161087e565b82525050565b600081519050919050565b600082825260208201905092915050565b60005b838110156108d15780820151818401526020810190506108b6565b60008484015250505050565b6000601f19601f8301169050919050565b60006108f982610897565b61090381856108a2565b93506109138185602086016108b3565b61091c816108dd565b840191505092915050565b60008115159050919050565b61093c81610927565b82525050565b600060c08301600083015161095a6000860182610888565b506020830151848203602086015261097282826108ee565b9150506040830151848203604086015261098c82826108ee565b915050606083015184820360608601526109a682826108ee565b91505060808301516109bb6080860182610933565b5060a08301516109ce60a0860182610933565b508091505092915050565b60006109e58383610942565b905092915050565b6000602082019050919050565b6000610a0582610852565b610a0f818561085d565b935083602082028501610a218561086e565b8060005b85811015610a5d5784840389528151610a3e85826109d9565b9450610a49836109ed565b925060208a01995050600181019050610a25565b50829750879550505050505092915050565b60006020820190508181036000830152610a8981846109fa565b905092915050565b6000604051905090565b600080fd5b600080fd5b610aae8161087e565b8114610ab957600080fd5b50565b600081359050610acb81610aa5565b92915050565b600080fd5b600080fd5b7f4e487b7100000000000000000000000000000000000000000000000000000000600052604160045260246000fd5b610b13826108dd565b810181811067ffffffffffffffff82111715610b3257610b31610adb565b5b80604052505050565b6000610b45610a91565b9050610b518282610b0a565b919050565b600067ffffffffffffffff821115610b7157610b70610adb565b5b610b7a826108dd565b9050602081019050919050565b82818337600083830152505050565b6000610ba9610ba484610b56565b610b3b565b905082815260208101848484011115610bc557610bc4610ad6565b5b610bd0848285610b87565b509392505050565b600082601f830112610bed57610bec610ad1565b5b8135610bfd848260208601610b96565b91505092915050565b60008060408385031215610c1d57610c1c610a9b565b5b6000610c2b85828601610abc565b925050602083013567ffffffffffffffff811115610c4c57610c4b610aa0565b5b610c5885828601610bd8565b9150509250929050565b60008060408385031215610c7957610c78610a9b565b5b600083013567ffffffffffffffff811115610c9757610c96610aa0565b5b610ca385828601610bd8565b925050602083013567ffffffffffffffff811115610cc457610cc3610aa0565b5b610cd085828601610bd8565b9150509250929050565b610ce381610927565b8114610cee57600080fd5b50565b600081359050610d0081610cda565b92915050565b60008060408385031215610d1d57610d1c610a9b565b5b6000610d2b85828601610abc565b9250506020610d3c85828601610cf1565b9150509250929050565b7f4e487b7100000000000000000000000000000000000000000000000000000000600052603260045260246000fd5b7f4e487b7100000000000000000000000000000000000000000000000000000000600052602260045260246000fd5b60006002820490506001821680610dbc57607f821691505b602082108103610dcf57610dce610d75565b5b50919050565b7f4e487b7100000000000000000000000000000000000000000000000000000000600052601160045260246000fd5b6000610e0f8261087e565b91507fffffffffffffffffffffffffffffffffffffffffffffffffffffffffffffffff8203610e4157610e40610dd5565b5b600182019050919050565b60008190508160005260206000209050919050565b60006020601f8301049050919050565b600082821b905092915050565b600060088302610eae7fffffffffffffffffffffffffffffffffffffffffffffffffffffffffffffffff82610e71565b610eb88683610e71565b95508019841693508086168417925050509392505050565b6000819050919050565b6000610ef5610ef0610eeb8461087e565b610ed0565b61087e565b9050919050565b6000819050919050565b610f0f83610eda565b610f23610f1b82610efc565b848454610e7e565b825550505050565b600090565b610f38610f2b565b610f43818484610f06565b505050565b5b81811015610f6757610f5c600082610f30565b600181019050610f49565b5050565b601f821115610fac57610f7d81610e4c565b610f8684610e61565b81016020851015610f95578190505b610fa9610fa185610e61565b830182610f48565b50505b505050565b600082821c905092915050565b6000610fcf60001984600802610fb1565b1980831691505092915050565b6000610fe88383610fbe565b9150826002028217905092915050565b61100182610897565b67ffffffffffffffff81111561101a57611019610adb565b5b6110248254610da4565b61102f828285610f6b565b600060209050601f8311600181146110625760008415611050578287015190505b61105a8582610fdc565b8655506110c2565b601f19841661107086610e4c565b60005b8281101561109857848901518255600182019150602085019450602081019050611073565b868310156110b557848901516110b1601f891682610fbe565b8355505b6001600288020188555050505b505050505050565b6110d38161087e565b82525050565b6110e281610927565b82525050565b600082825260208201905092915050565b600061110482610897565b61110e81856110e8565b935061111e8185602086016108b3565b611127816108dd565b840191505092915050565b600060608201905061114760008301866110ca565b61115460208301856110d9565b818103604083015261116681846110f9565b9050949350505050565b600073ffffffffffffffffffffffffffffffffffffffff82169050919050565b600061119b82611170565b9050919050565b6111ab81611190565b82525050565b60006040820190506111c660008301856111a2565b6111d360208301846110ca565b9392505050565b60006040820190506111ef60008301856110ca565b6111fc60208301846110d9565b939250505056fea26469706673582212204a95bff07b3dea833a9d98e448b2127ac08be445eac5f8d6851e9d63b57351aa64736f6c63430008110033",
  "immutableReferences": {},
  "source": "// SPDX-License-Identifier: MIT\npragma solidity >=0.4.22 <0.9.0;\n\ncontract TodoTaskContract {\n  event AddTask(address recipient, uint taskID);\n  event RemoveTask(uint taskId, bool isDeleted);\n  event CompleteTask(uint taskId, bool isCompleted, string completedAt);\n//{id: 1, title: \"Task 1\", createdAt: \"10/12/22\", completedAt: \"10/12/22\", isChecked: false, isDeleted: false}\n  struct Task {\n    uint id;\n    string title;\n    string createdAt;\n    string compeledAt;\n    bool isChecked;\n    bool isDeleted;\n  }\n\n  Task[] private tasks;\n  mapping(uint256 => address) taskToOwner;\n\n   function addTask(string memory title, string memory createdAt) public {\n    uint id = tasks.length;\n    tasks.push(Task(id, title, createdAt, \"\", false, false));\n    taskToOwner[id] = msg.sender;\n    emit AddTask(msg.sender, id);\n   }\n\n   function getMyTasks() public view returns (Task[] memory) {\n    Task[] memory myTasks = new Task[](tasks.length);\n    uint counter = 0;\n    for (uint i = 0; i < tasks.length; i++) {\n      if (taskToOwner[i] == msg.sender && !tasks[i].isDeleted) {\n        myTasks[counter] = tasks[i];\n        counter++;\n      }\n    }\n     Task[] memory result = new Task[](counter);\n    for (uint i = 0; i < counter; i++) {\n      result[i] = myTasks[i];\n    }\n    return result;\n   }\n\n   function removeTask(uint taskId, bool isDeleted) public {\n    if(taskToOwner[taskId] == msg.sender) {\n      tasks[taskId].isDeleted = isDeleted;\n      emit RemoveTask(taskId, isDeleted);\n    }\n   }\n\n   function completeTask(uint taskId, string memory completedAt) public {\n    tasks[taskId].isChecked = true;\n    tasks[taskId].compeledAt = completedAt;\n    emit CompleteTask(taskId, true, completedAt);\n   }\n\n}\n",
  "sourcePath": "D:\\NextJs\\todo-in-solidity-with-nextjs-tailwindcss\\backend\\contracts\\TodoTaskContract.sol",
  "compiler": {
    "name": "solc",
    "version": "0.8.17+commit.8df45f5f.Emscripten.clang"
  },
  "schemaVersion": "3.4.10",
  "updatedAt": "2022-09-26T06:22:42.570Z",
  "networkType": "ethereum",
  "devdoc": {
    "kind": "dev",
    "methods": {},
    "version": 1
  },
  "userdoc": {
    "kind": "user",
    "methods": {},
    "version": 1
  }
}